{
  "address": "0x75C5Ff4a5b4377025AA3C38A49eDc605c4BbAA74",
  "abi": [
    {
      "inputs": [
        {
          "internalType": "address",
          "name": "_link",
          "type": "address"
        },
        {
          "internalType": "uint128",
          "name": "_paymentAmount",
          "type": "uint128"
        },
        {
          "internalType": "uint32",
          "name": "_timeout",
          "type": "uint32"
        },
        {
          "internalType": "address",
          "name": "_validator",
          "type": "address"
        },
        {
          "internalType": "int256",
          "name": "_minSubmissionValue",
          "type": "int256"
        },
        {
          "internalType": "int256",
          "name": "_maxSubmissionValue",
          "type": "int256"
        },
        {
          "internalType": "uint8",
          "name": "_decimals",
          "type": "uint8"
        },
        {
          "internalType": "string",
          "name": "_description",
          "type": "string"
        }
      ],
      "stateMutability": "nonpayable",
      "type": "constructor"
    },
    {
      "anonymous": false,
      "inputs": [
        {
          "indexed": true,
          "internalType": "int256",
          "name": "current",
          "type": "int256"
        },
        {
          "indexed": true,
          "internalType": "uint256",
          "name": "roundId",
          "type": "uint256"
        },
        {
          "indexed": false,
          "internalType": "uint256",
          "name": "updatedAt",
          "type": "uint256"
        }
      ],
      "name": "AnswerUpdated",
      "type": "event"
    },
    {
      "anonymous": false,
      "inputs": [
        {
          "indexed": true,
          "internalType": "uint256",
          "name": "amount",
          "type": "uint256"
        }
      ],
      "name": "AvailableFundsUpdated",
      "type": "event"
    },
    {
      "anonymous": false,
      "inputs": [
        {
          "indexed": true,
          "internalType": "uint256",
          "name": "roundId",
          "type": "uint256"
        },
        {
          "indexed": true,
          "internalType": "address",
          "name": "startedBy",
          "type": "address"
        },
        {
          "indexed": false,
          "internalType": "uint256",
          "name": "startedAt",
          "type": "uint256"
        }
      ],
      "name": "NewRound",
      "type": "event"
    },
    {
      "anonymous": false,
      "inputs": [
        {
          "indexed": true,
          "internalType": "address",
          "name": "oracle",
          "type": "address"
        },
        {
          "indexed": false,
          "internalType": "address",
          "name": "admin",
          "type": "address"
        },
        {
          "indexed": false,
          "internalType": "address",
          "name": "newAdmin",
          "type": "address"
        }
      ],
      "name": "OracleAdminUpdateRequested",
      "type": "event"
    },
    {
      "anonymous": false,
      "inputs": [
        {
          "indexed": true,
          "internalType": "address",
          "name": "oracle",
          "type": "address"
        },
        {
          "indexed": true,
          "internalType": "address",
          "name": "newAdmin",
          "type": "address"
        }
      ],
      "name": "OracleAdminUpdated",
      "type": "event"
    },
    {
      "anonymous": false,
      "inputs": [
        {
          "indexed": true,
          "internalType": "address",
          "name": "oracle",
          "type": "address"
        },
        {
          "indexed": true,
          "internalType": "bool",
          "name": "whitelisted",
          "type": "bool"
        }
      ],
      "name": "OraclePermissionsUpdated",
      "type": "event"
    },
    {
      "anonymous": false,
      "inputs": [
        {
          "indexed": true,
          "internalType": "address",
          "name": "from",
          "type": "address"
        },
        {
          "indexed": true,
          "internalType": "address",
          "name": "to",
          "type": "address"
        }
      ],
      "name": "OwnershipTransferRequested",
      "type": "event"
    },
    {
      "anonymous": false,
      "inputs": [
        {
          "indexed": true,
          "internalType": "address",
          "name": "from",
          "type": "address"
        },
        {
          "indexed": true,
          "internalType": "address",
          "name": "to",
          "type": "address"
        }
      ],
      "name": "OwnershipTransferred",
      "type": "event"
    },
    {
      "anonymous": false,
      "inputs": [
        {
          "indexed": true,
          "internalType": "address",
          "name": "requester",
          "type": "address"
        },
        {
          "indexed": false,
          "internalType": "bool",
          "name": "authorized",
          "type": "bool"
        },
        {
          "indexed": false,
          "internalType": "uint32",
          "name": "delay",
          "type": "uint32"
        }
      ],
      "name": "RequesterPermissionsSet",
      "type": "event"
    },
    {
      "anonymous": false,
      "inputs": [
        {
          "indexed": true,
          "internalType": "uint128",
          "name": "paymentAmount",
          "type": "uint128"
        },
        {
          "indexed": true,
          "internalType": "uint32",
          "name": "minSubmissionCount",
          "type": "uint32"
        },
        {
          "indexed": true,
          "internalType": "uint32",
          "name": "maxSubmissionCount",
          "type": "uint32"
        },
        {
          "indexed": false,
          "internalType": "uint32",
          "name": "restartDelay",
          "type": "uint32"
        },
        {
          "indexed": false,
          "internalType": "uint32",
          "name": "timeout",
          "type": "uint32"
        }
      ],
      "name": "RoundDetailsUpdated",
      "type": "event"
    },
    {
      "anonymous": false,
      "inputs": [
        {
          "indexed": true,
          "internalType": "int256",
          "name": "submission",
          "type": "int256"
        },
        {
          "indexed": true,
          "internalType": "uint32",
          "name": "round",
          "type": "uint32"
        },
        {
          "indexed": true,
          "internalType": "address",
          "name": "oracle",
          "type": "address"
        }
      ],
      "name": "SubmissionReceived",
      "type": "event"
    },
    {
      "anonymous": false,
      "inputs": [
        {
          "indexed": true,
          "internalType": "address",
          "name": "previous",
          "type": "address"
        },
        {
          "indexed": true,
          "internalType": "address",
          "name": "current",
          "type": "address"
        }
      ],
      "name": "ValidatorUpdated",
      "type": "event"
    },
    {
      "inputs": [
        {
          "internalType": "address",
          "name": "_oracle",
          "type": "address"
        }
      ],
      "name": "acceptAdmin",
      "outputs": [],
      "stateMutability": "nonpayable",
      "type": "function"
    },
    {
      "inputs": [],
      "name": "acceptOwnership",
      "outputs": [],
      "stateMutability": "nonpayable",
      "type": "function"
    },
    {
      "inputs": [],
      "name": "allocatedFunds",
      "outputs": [
        {
          "internalType": "uint128",
          "name": "",
          "type": "uint128"
        }
      ],
      "stateMutability": "view",
      "type": "function"
    },
    {
      "inputs": [],
      "name": "availableFunds",
      "outputs": [
        {
          "internalType": "uint128",
          "name": "",
          "type": "uint128"
        }
      ],
      "stateMutability": "view",
      "type": "function"
    },
    {
      "inputs": [
        {
          "internalType": "address[]",
          "name": "_removed",
          "type": "address[]"
        },
        {
          "internalType": "address[]",
          "name": "_added",
          "type": "address[]"
        },
        {
          "internalType": "address[]",
          "name": "_addedAdmins",
          "type": "address[]"
        },
        {
          "internalType": "uint32",
          "name": "_minSubmissions",
          "type": "uint32"
        },
        {
          "internalType": "uint32",
          "name": "_maxSubmissions",
          "type": "uint32"
        },
        {
          "internalType": "uint32",
          "name": "_restartDelay",
          "type": "uint32"
        }
      ],
      "name": "changeOracles",
      "outputs": [],
      "stateMutability": "nonpayable",
      "type": "function"
    },
    {
      "inputs": [],
      "name": "decimals",
      "outputs": [
        {
          "internalType": "uint8",
          "name": "",
          "type": "uint8"
        }
      ],
      "stateMutability": "view",
      "type": "function"
    },
    {
      "inputs": [],
      "name": "description",
      "outputs": [
        {
          "internalType": "string",
          "name": "",
          "type": "string"
        }
      ],
      "stateMutability": "view",
      "type": "function"
    },
    {
      "inputs": [
        {
          "internalType": "address",
          "name": "_oracle",
          "type": "address"
        }
      ],
      "name": "getAdmin",
      "outputs": [
        {
          "internalType": "address",
          "name": "",
          "type": "address"
        }
      ],
      "stateMutability": "view",
      "type": "function"
    },
    {
      "inputs": [
        {
          "internalType": "uint256",
          "name": "_roundId",
          "type": "uint256"
        }
      ],
      "name": "getAnswer",
      "outputs": [
        {
          "internalType": "int256",
          "name": "",
          "type": "int256"
        }
      ],
      "stateMutability": "view",
      "type": "function"
    },
    {
      "inputs": [],
      "name": "getOracles",
      "outputs": [
        {
          "internalType": "address[]",
          "name": "",
          "type": "address[]"
        }
      ],
      "stateMutability": "view",
      "type": "function"
    },
    {
      "inputs": [
        {
          "internalType": "uint80",
          "name": "_roundId",
          "type": "uint80"
        }
      ],
      "name": "getRoundData",
      "outputs": [
        {
          "internalType": "uint80",
          "name": "roundId",
          "type": "uint80"
        },
        {
          "internalType": "int256",
          "name": "answer",
          "type": "int256"
        },
        {
          "internalType": "uint256",
          "name": "startedAt",
          "type": "uint256"
        },
        {
          "internalType": "uint256",
          "name": "updatedAt",
          "type": "uint256"
        },
        {
          "internalType": "uint80",
          "name": "answeredInRound",
          "type": "uint80"
        }
      ],
      "stateMutability": "view",
      "type": "function"
    },
    {
      "inputs": [
        {
          "internalType": "uint256",
          "name": "_roundId",
          "type": "uint256"
        }
      ],
      "name": "getTimestamp",
      "outputs": [
        {
          "internalType": "uint256",
          "name": "",
          "type": "uint256"
        }
      ],
      "stateMutability": "view",
      "type": "function"
    },
    {
      "inputs": [],
      "name": "latestAnswer",
      "outputs": [
        {
          "internalType": "int256",
          "name": "",
          "type": "int256"
        }
      ],
      "stateMutability": "view",
      "type": "function"
    },
    {
      "inputs": [],
      "name": "latestRound",
      "outputs": [
        {
          "internalType": "uint256",
          "name": "",
          "type": "uint256"
        }
      ],
      "stateMutability": "view",
      "type": "function"
    },
    {
      "inputs": [],
      "name": "latestRoundData",
      "outputs": [
        {
          "internalType": "uint80",
          "name": "roundId",
          "type": "uint80"
        },
        {
          "internalType": "int256",
          "name": "answer",
          "type": "int256"
        },
        {
          "internalType": "uint256",
          "name": "startedAt",
          "type": "uint256"
        },
        {
          "internalType": "uint256",
          "name": "updatedAt",
          "type": "uint256"
        },
        {
          "internalType": "uint80",
          "name": "answeredInRound",
          "type": "uint80"
        }
      ],
      "stateMutability": "view",
      "type": "function"
    },
    {
      "inputs": [],
      "name": "latestTimestamp",
      "outputs": [
        {
          "internalType": "uint256",
          "name": "",
          "type": "uint256"
        }
      ],
      "stateMutability": "view",
      "type": "function"
    },
    {
      "inputs": [],
      "name": "linkToken",
      "outputs": [
        {
          "internalType": "contract LinkTokenInterface",
          "name": "",
          "type": "address"
        }
      ],
      "stateMutability": "view",
      "type": "function"
    },
    {
      "inputs": [],
      "name": "maxSubmissionCount",
      "outputs": [
        {
          "internalType": "uint32",
          "name": "",
          "type": "uint32"
        }
      ],
      "stateMutability": "view",
      "type": "function"
    },
    {
      "inputs": [],
      "name": "maxSubmissionValue",
      "outputs": [
        {
          "internalType": "int256",
          "name": "",
          "type": "int256"
        }
      ],
      "stateMutability": "view",
      "type": "function"
    },
    {
      "inputs": [],
      "name": "minSubmissionCount",
      "outputs": [
        {
          "internalType": "uint32",
          "name": "",
          "type": "uint32"
        }
      ],
      "stateMutability": "view",
      "type": "function"
    },
    {
      "inputs": [],
      "name": "minSubmissionValue",
      "outputs": [
        {
          "internalType": "int256",
          "name": "",
          "type": "int256"
        }
      ],
      "stateMutability": "view",
      "type": "function"
    },
    {
      "inputs": [
        {
          "internalType": "address",
          "name": "",
          "type": "address"
        },
        {
          "internalType": "uint256",
          "name": "",
          "type": "uint256"
        },
        {
          "internalType": "bytes",
          "name": "_data",
          "type": "bytes"
        }
      ],
      "name": "onTokenTransfer",
      "outputs": [],
      "stateMutability": "nonpayable",
      "type": "function"
    },
    {
      "inputs": [],
      "name": "oracleCount",
      "outputs": [
        {
          "internalType": "uint8",
          "name": "",
          "type": "uint8"
        }
      ],
      "stateMutability": "view",
      "type": "function"
    },
    {
      "inputs": [
        {
          "internalType": "address",
          "name": "_oracle",
          "type": "address"
        },
        {
          "internalType": "uint32",
          "name": "_queriedRoundId",
          "type": "uint32"
        }
      ],
      "name": "oracleRoundState",
      "outputs": [
        {
          "internalType": "bool",
          "name": "_eligibleToSubmit",
          "type": "bool"
        },
        {
          "internalType": "uint32",
          "name": "_roundId",
          "type": "uint32"
        },
        {
          "internalType": "int256",
          "name": "_latestSubmission",
          "type": "int256"
        },
        {
          "internalType": "uint64",
          "name": "_startedAt",
          "type": "uint64"
        },
        {
          "internalType": "uint64",
          "name": "_timeout",
          "type": "uint64"
        },
        {
          "internalType": "uint128",
          "name": "_availableFunds",
          "type": "uint128"
        },
        {
          "internalType": "uint8",
          "name": "_oracleCount",
          "type": "uint8"
        },
        {
          "internalType": "uint128",
          "name": "_paymentAmount",
          "type": "uint128"
        }
      ],
      "stateMutability": "view",
      "type": "function"
    },
    {
      "inputs": [],
      "name": "owner",
      "outputs": [
        {
          "internalType": "address",
          "name": "",
          "type": "address"
        }
      ],
      "stateMutability": "view",
      "type": "function"
    },
    {
      "inputs": [],
      "name": "paymentAmount",
      "outputs": [
        {
          "internalType": "uint128",
          "name": "",
          "type": "uint128"
        }
      ],
      "stateMutability": "view",
      "type": "function"
    },
    {
      "inputs": [],
      "name": "requestNewRound",
      "outputs": [
        {
          "internalType": "uint80",
          "name": "",
          "type": "uint80"
        }
      ],
      "stateMutability": "nonpayable",
      "type": "function"
    },
    {
      "inputs": [],
      "name": "restartDelay",
      "outputs": [
        {
          "internalType": "uint32",
          "name": "",
          "type": "uint32"
        }
      ],
      "stateMutability": "view",
      "type": "function"
    },
    {
      "inputs": [
        {
          "internalType": "address",
          "name": "_requester",
          "type": "address"
        },
        {
          "internalType": "bool",
          "name": "_authorized",
          "type": "bool"
        },
        {
          "internalType": "uint32",
          "name": "_delay",
          "type": "uint32"
        }
      ],
      "name": "setRequesterPermissions",
      "outputs": [],
      "stateMutability": "nonpayable",
      "type": "function"
    },
    {
      "inputs": [
        {
          "internalType": "address",
          "name": "_newValidator",
          "type": "address"
        }
      ],
      "name": "setValidator",
      "outputs": [],
      "stateMutability": "nonpayable",
      "type": "function"
    },
    {
      "inputs": [
        {
          "internalType": "uint256",
          "name": "_roundId",
          "type": "uint256"
        },
        {
          "internalType": "int256",
          "name": "_submission",
          "type": "int256"
        }
      ],
      "name": "submit",
      "outputs": [],
      "stateMutability": "nonpayable",
      "type": "function"
    },
    {
      "inputs": [],
      "name": "timeout",
      "outputs": [
        {
          "internalType": "uint32",
          "name": "",
          "type": "uint32"
        }
      ],
      "stateMutability": "view",
      "type": "function"
    },
    {
      "inputs": [
        {
          "internalType": "address",
          "name": "_oracle",
          "type": "address"
        },
        {
          "internalType": "address",
          "name": "_newAdmin",
          "type": "address"
        }
      ],
      "name": "transferAdmin",
      "outputs": [],
      "stateMutability": "nonpayable",
      "type": "function"
    },
    {
      "inputs": [
        {
          "internalType": "address",
          "name": "_to",
          "type": "address"
        }
      ],
      "name": "transferOwnership",
      "outputs": [],
      "stateMutability": "nonpayable",
      "type": "function"
    },
    {
      "inputs": [],
      "name": "updateAvailableFunds",
      "outputs": [],
      "stateMutability": "nonpayable",
      "type": "function"
    },
    {
      "inputs": [
        {
          "internalType": "uint128",
          "name": "_paymentAmount",
          "type": "uint128"
        },
        {
          "internalType": "uint32",
          "name": "_minSubmissions",
          "type": "uint32"
        },
        {
          "internalType": "uint32",
          "name": "_maxSubmissions",
          "type": "uint32"
        },
        {
          "internalType": "uint32",
          "name": "_restartDelay",
          "type": "uint32"
        },
        {
          "internalType": "uint32",
          "name": "_timeout",
          "type": "uint32"
        }
      ],
      "name": "updateFutureRounds",
      "outputs": [],
      "stateMutability": "nonpayable",
      "type": "function"
    },
    {
      "inputs": [],
      "name": "validator",
      "outputs": [
        {
          "internalType": "contract AggregatorValidatorInterface",
          "name": "",
          "type": "address"
        }
      ],
      "stateMutability": "view",
      "type": "function"
    },
    {
      "inputs": [],
      "name": "version",
      "outputs": [
        {
          "internalType": "uint256",
          "name": "",
          "type": "uint256"
        }
      ],
      "stateMutability": "view",
      "type": "function"
    },
    {
      "inputs": [
        {
          "internalType": "address",
          "name": "_recipient",
          "type": "address"
        },
        {
          "internalType": "uint256",
          "name": "_amount",
          "type": "uint256"
        }
      ],
      "name": "withdrawFunds",
      "outputs": [],
      "stateMutability": "nonpayable",
      "type": "function"
    },
    {
      "inputs": [
        {
          "internalType": "address",
          "name": "_oracle",
          "type": "address"
        },
        {
          "internalType": "address",
          "name": "_recipient",
          "type": "address"
        },
        {
          "internalType": "uint256",
          "name": "_amount",
          "type": "uint256"
        }
      ],
      "name": "withdrawPayment",
      "outputs": [],
      "stateMutability": "nonpayable",
      "type": "function"
    },
    {
      "inputs": [
        {
          "internalType": "address",
          "name": "_oracle",
          "type": "address"
        }
      ],
      "name": "withdrawablePayment",
      "outputs": [
        {
          "internalType": "uint256",
          "name": "",
          "type": "uint256"
        }
      ],
      "stateMutability": "view",
      "type": "function"
    }
  ],
  "transactionHash": "0xf7f27f464fa84f2a345d6e09c05a482b9355fc0b618948d781f8c45914a9780c",
  "args": [
    "0x2080b61De559b5f7d5230CA6DAE36B5aabbf534D",
    "100000000000000000",
    "10",
    "0x0000000000000000000000000000000000000000",
    "1000000",
    "1000000000000000",
    "8",
    "ETH / USD"
  ],
  "numDeployments": 2,
  "solcInputHash": "f2fcb82d95c4983a89ca2e4a35f1b7ab",
  "bytecode": "0x60c06040523480156200001157600080fd5b5060405162004d4638038062004d4683398181016040526101008110156200003857600080fd5b815160208301516040808501516060860151608087015160a088015160c089015160e08a0180519651989a9799959894979396929591949391820192846401000000008211156200008857600080fd5b9083019060208201858111156200009e57600080fd5b8251640100000000811182820188101715620000b957600080fd5b82525081516020918201929091019080838360005b83811015620000e8578181015183820152602001620000ce565b50505050905090810190601f168015620001165780820380516001836020036101000a031916815260200191505b50604052505060008054336001600160a01b0319918216178255600280549091166001600160a01b038c16179055620001559150889080808a6200021f565b62000169856001600160e01b03620005fd16565b608084905260a08390526005805460ff191660ff8416179055805162000197906006906020840190620007e1565b50620001b88663ffffffff1642620006c760201b620031161790919060201c565b6000805260096020527fec8156718a8372b1db44bb411437d0870f3e3790d4a08526d024ce1b0b668f6c80546001600160401b03929092166801000000000000000002600160401b600160801b031990921691909117905550620008839650505050505050565b6000546001600160a01b031633146200027f576040805162461bcd60e51b815260206004820152601660248201527f4f6e6c792063616c6c61626c65206279206f776e657200000000000000000000604482015290519081900360640190fd5b6000620002946001600160e01b036200072a16565b60ff1690508463ffffffff168463ffffffff161015620002fb576040805162461bcd60e51b815260206004820152601960248201527f6d6178206d75737420657175616c2f657863656564206d696e00000000000000604482015290519081900360640190fd5b8363ffffffff168163ffffffff1610156200035d576040805162461bcd60e51b815260206004820152601760248201527f6d61782063616e6e6f742065786365656420746f74616c000000000000000000604482015290519081900360640190fd5b63ffffffff811615806200037c57508263ffffffff168163ffffffff16115b620003ce576040805162461bcd60e51b815260206004820152601960248201527f64656c61792063616e6e6f742065786365656420746f74616c00000000000000604482015290519081900360640190fd5b620003eb6001600160801b0387166001600160e01b036200073116565b600d546001600160801b031610156200044b576040805162461bcd60e51b815260206004820152601e60248201527f696e73756666696369656e742066756e647320666f72207061796d656e740000604482015290519081900360640190fd5b6000620004606001600160e01b036200072a16565b60ff161115620004c65760008563ffffffff1611620004c6576040805162461bcd60e51b815260206004820152601a60248201527f6d696e206d7573742062652067726561746572207468616e2030000000000000604482015290519081900360640190fd5b85600460006101000a8154816001600160801b0302191690836001600160801b0316021790555084600460146101000a81548163ffffffff021916908363ffffffff16021790555083600460106101000a81548163ffffffff021916908363ffffffff16021790555082600460186101000a81548163ffffffff021916908363ffffffff160217905550816004601c6101000a81548163ffffffff021916908363ffffffff1602179055508363ffffffff168563ffffffff16600460009054906101000a90046001600160801b03166001600160801b03167f56800c9d1ed723511246614d15e58cfcde15b6a33c245b5c961b689c1890fd8f8686604051808363ffffffff1663ffffffff1681526020018263ffffffff1663ffffffff1681526020019250505060405180910390a4505050505050565b6000546001600160a01b031633146200065d576040805162461bcd60e51b815260206004820152601660248201527f4f6e6c792063616c6c61626c65206279206f776e657200000000000000000000604482015290519081900360640190fd5b6003546001600160a01b039081169082168114620006c357600380546001600160a01b0319166001600160a01b0384811691821790925560405190918316907fcfac5dc75b8d9a7e074162f59d9adcd33da59f0fe8dfb21580db298fc0fdad0d90600090a35b5050565b6000828211156200071f576040805162461bcd60e51b815260206004820152601e60248201527f536166654d6174683a207375627472616374696f6e206f766572666c6f770000604482015290519081900360640190fd5b508082035b92915050565b600c545b90565b600062000724600262000768620007506001600160e01b036200072a16565b60ff16856200077c60201b620039891790919060201c565b6200077c60201b620039891790919060201c565b6000826200078d5750600062000724565b828202828482816200079b57fe5b0414620007da5760405162461bcd60e51b815260040180806020018281038252602181526020018062004d256021913960400191505060405180910390fd5b9392505050565b828054600181600116156101000203166002900490600052602060002090601f016020900481019282601f106200082457805160ff191683800117855562000854565b8280016001018555821562000854579182015b828111156200085457825182559160200191906001019062000837565b506200086292915062000866565b5090565b6200072e91905b808211156200086257600081556001016200086d565b60805160a051614474620008b160003980610b185280610da7525080610aa35280611a0752506144746000f3fe608060405234801561001057600080fd5b50600436106102d35760003560e01c8063668a0f0211610186578063a4c0ed36116100e3578063c937450011610097578063e9ee6eeb11610071578063e9ee6eeb14610976578063f2fde38b146109a4578063feaf968c146109ca576102d3565b8063c937450014610940578063d4cc54e414610948578063e2e4031714610950576102d3565b8063b633620c116100c8578063b633620c146108ef578063c10753291461090c578063c35905c614610938576102d3565b8063a4c0ed361461084d578063b5ab58dc146108d2576102d3565b80638205bf6a1161013a5780638da5cb5b1161011f5780638da5cb5b146107b657806398e5b12a146107be5780639a6fc8f5146107e5576102d3565b80638205bf6a1461071b57806388aa80e714610723576102d3565b80637284e4161161016b5780637284e4161461068e57806379ba50971461070b5780637c2b0b2114610713576102d3565b8063668a0f021461067e57806370dea79a14610686576102d3565b806340884c521161023457806357970e93116101e8578063613d8fcc116101cd578063613d8fcc1461062a578063628806ef1461063257806364efb22b14610658576102d3565b806357970e931461061a57806358609e4414610622576102d3565b80634f8fc3b5116102195780634f8fc3b51461060257806350d25bcd1461060a57806354fd4d5014610612576102d3565b806340884c521461058657806346fcff4c146105de576102d3565b8063357ebb021161028b5780633969c20f116102705780633969c20f146104005780633a5381b51461052c5780633d3d771414610550576102d3565b8063357ebb021461039557806338aa4c72146103b6576102d3565b806320ed0275116102bc57806320ed02751461032357806323ca29031461035d578063313ce56714610377576102d3565b80631327d3d8146102d8578063202ee0ed14610300575b600080fd5b6102fe600480360360208110156102ee57600080fd5b50356001600160a01b03166109d2565b005b6102fe6004803603604081101561031657600080fd5b5080359060200135610a93565b6102fe6004803603606081101561033957600080fd5b5080356001600160a01b03169060208101351515906040013563ffffffff16610c65565b610365610da5565b60408051918252519081900360200190f35b61037f610dc9565b6040805160ff9092168252519081900360200190f35b61039d610dd2565b6040805163ffffffff9092168252519081900360200190f35b6102fe600480360360a08110156103cc57600080fd5b506001600160801b038135169063ffffffff6020820135811691604081013582169160608201358116916080013516610de5565b6102fe600480360360c081101561041657600080fd5b81019060208101813564010000000081111561043157600080fd5b82018360208201111561044357600080fd5b8035906020019184602083028401116401000000008311171561046557600080fd5b91939092909160208101903564010000000081111561048357600080fd5b82018360208201111561049557600080fd5b803590602001918460208302840111640100000000831117156104b757600080fd5b9193909290916020810190356401000000008111156104d557600080fd5b8201836020820111156104e757600080fd5b8035906020019184602083028401116401000000008311171561050957600080fd5b919350915063ffffffff8135811691602081013582169160409091013516611193565b610534611370565b604080516001600160a01b039092168252519081900360200190f35b6102fe6004803603606081101561056657600080fd5b506001600160a01b0381358116916020810135909116906040013561137f565b61058e611582565b60408051602080825283518183015283519192839290830191858101910280838360005b838110156105ca5781810151838201526020016105b2565b505050509050019250505060405180910390f35b6105e66115e5565b604080516001600160801b039092168252519081900360200190f35b6102fe6115f4565b61036561172d565b610365611750565b610534611755565b61039d611764565b61037f611777565b6102fe6004803603602081101561064857600080fd5b50356001600160a01b031661177d565b6105346004803603602081101561066e57600080fd5b50356001600160a01b0316611870565b61036561189a565b61039d6118ae565b6106966118c1565b6040805160208082528351818301528351919283929083019185019080838360005b838110156106d05781810151838201526020016106b8565b50505050905090810190601f1680156106fd5780820380516001836020036101000a031916815260200191505b509250505060405180910390f35b6102fe61194f565b610365611a05565b610365611a29565b6107556004803603604081101561073957600080fd5b5080356001600160a01b0316906020013563ffffffff16611a60565b60408051981515895263ffffffff90971660208901528787019590955267ffffffffffffffff93841660608801529190921660808601526001600160801b0391821660a086015260ff1660c08501521660e083015251908190036101000190f35b610534611bc9565b6107c6611bd8565b6040805169ffffffffffffffffffff9092168252519081900360200190f35b61080e600480360360208110156107fb57600080fd5b503569ffffffffffffffffffff16611cf8565b6040805169ffffffffffffffffffff96871681526020810195909552848101939093526060840191909152909216608082015290519081900360a00190f35b6102fe6004803603606081101561086357600080fd5b6001600160a01b038235169160208101359181019060608101604082013564010000000081111561089357600080fd5b8201836020820111156108a557600080fd5b803590602001918460018302840111640100000000831117156108c757600080fd5b509092509050611e42565b610365600480360360208110156108e857600080fd5b5035611ea3565b6103656004803603602081101561090557600080fd5b5035611ed7565b6102fe6004803603604081101561092257600080fd5b506001600160a01b038135169060200135611f17565b6105e66120cc565b61039d6120db565b6105e66120ee565b6103656004803603602081101561096657600080fd5b50356001600160a01b0316612104565b6102fe6004803603604081101561098c57600080fd5b506001600160a01b0381358116916020013516612128565b6102fe600480360360208110156109ba57600080fd5b50356001600160a01b0316612212565b61080e6122bb565b6000546001600160a01b03163314610a2a576040805162461bcd60e51b815260206004820152601660248201527527b7363c9031b0b63630b1363290313c9037bbb732b960511b604482015290519081900360640190fd5b6003546001600160a01b039081169082168114610a8f57600380546001600160a01b0319166001600160a01b0384811691821790925560405190918316907fcfac5dc75b8d9a7e074162f59d9adcd33da59f0fe8dfb21580db298fc0fdad0d90600090a35b5050565b6060610a9f33846122f5565b90507f0000000000000000000000000000000000000000000000000000000000000000821215610b16576040805162461bcd60e51b815260206004820152601e60248201527f76616c75652062656c6f77206d696e5375626d697373696f6e56616c75650000604482015290519081900360640190fd5b7f0000000000000000000000000000000000000000000000000000000000000000821315610b8b576040805162461bcd60e51b815260206004820152601e60248201527f76616c75652061626f7665206d61785375626d697373696f6e56616c75650000604482015290519081900360640190fd5b8051819015610c185760405162461bcd60e51b81526004018080602001828103825283818151815260200191508051906020019080838360005b83811015610bdd578181015183820152602001610bc5565b50505050905090810190601f168015610c0a5780820380516001836020036101000a031916815260200191505b509250505060405180910390fd5b50610c22836125aa565b610c2c8284612653565b600080610c3885612744565b91509150610c45856128a4565b610c4e856129f9565b8115610c5e57610c5e8582612a70565b5050505050565b6000546001600160a01b03163314610cbd576040805162461bcd60e51b815260206004820152601660248201527527b7363c9031b0b63630b1363290313c9037bbb732b960511b604482015290519081900360640190fd5b6001600160a01b0383166000908152600b602052604090205460ff1615158215151415610ce957610da0565b8115610d2c576001600160a01b0383166000908152600b60205260409020805460ff19168315151764ffffffff00191661010063ffffffff841602179055610d55565b6001600160a01b0383166000908152600b60205260409020805468ffffffffffffffffff191690555b60408051831515815263ffffffff8316602082015281516001600160a01b038616927fc3df5a754e002718f2e10804b99e6605e7c701d95cec9552c7680ca2b6f2820a928290030190a25b505050565b7f000000000000000000000000000000000000000000000000000000000000000081565b60055460ff1681565b600454600160c01b900463ffffffff1681565b6000546001600160a01b03163314610e3d576040805162461bcd60e51b815260206004820152601660248201527527b7363c9031b0b63630b1363290313c9037bbb732b960511b604482015290519081900360640190fd5b6000610e47611777565b60ff1690508463ffffffff168463ffffffff161015610ead576040805162461bcd60e51b815260206004820152601960248201527f6d6178206d75737420657175616c2f657863656564206d696e00000000000000604482015290519081900360640190fd5b8363ffffffff168163ffffffff161015610f0e576040805162461bcd60e51b815260206004820152601760248201527f6d61782063616e6e6f742065786365656420746f74616c000000000000000000604482015290519081900360640190fd5b63ffffffff81161580610f2c57508263ffffffff168163ffffffff16115b610f7d576040805162461bcd60e51b815260206004820152601960248201527f64656c61792063616e6e6f742065786365656420746f74616c00000000000000604482015290519081900360640190fd5b610f8f866001600160801b0316612b82565b600d546001600160801b03161015610fee576040805162461bcd60e51b815260206004820152601e60248201527f696e73756666696369656e742066756e647320666f72207061796d656e740000604482015290519081900360640190fd5b6000610ff8611777565b60ff16111561105c5760008563ffffffff161161105c576040805162461bcd60e51b815260206004820152601a60248201527f6d696e206d7573742062652067726561746572207468616e2030000000000000604482015290519081900360640190fd5b85600460006101000a8154816001600160801b0302191690836001600160801b0316021790555084600460146101000a81548163ffffffff021916908363ffffffff16021790555083600460106101000a81548163ffffffff021916908363ffffffff16021790555082600460186101000a81548163ffffffff021916908363ffffffff160217905550816004601c6101000a81548163ffffffff021916908363ffffffff1602179055508363ffffffff168563ffffffff16600460009054906101000a90046001600160801b03166001600160801b03167f56800c9d1ed723511246614d15e58cfcde15b6a33c245b5c961b689c1890fd8f8686604051808363ffffffff1663ffffffff1681526020018263ffffffff1663ffffffff1681526020019250505060405180910390a4505050505050565b6000546001600160a01b031633146111eb576040805162461bcd60e51b815260206004820152601660248201527527b7363c9031b0b63630b1363290313c9037bbb732b960511b604482015290519081900360640190fd5b60005b888110156112225761121a8a8a8381811061120557fe5b905060200201356001600160a01b0316612bb0565b6001016111ee565b50858414611277576040805162461bcd60e51b815260206004820181905260248201527f6e6565642073616d65206f7261636c6520616e642061646d696e20636f756e74604482015290519081900360640190fd5b604d61129487611285611777565b60ff169063ffffffff612d8916565b11156112e7576040805162461bcd60e51b815260206004820152601360248201527f6d6178206f7261636c657320616c6c6f77656400000000000000000000000000604482015290519081900360640190fd5b60005b8681101561133a5761133288888381811061130157fe5b905060200201356001600160a01b031687878481811061131d57fe5b905060200201356001600160a01b0316612dea565b6001016112ea565b50600454611365906001600160801b03811690859085908590600160e01b900463ffffffff16610de5565b505050505050505050565b6003546001600160a01b031681565b6001600160a01b038381166000908152600860205260409020600201546201000090041633146113f6576040805162461bcd60e51b815260206004820152601660248201527f6f6e6c792063616c6c61626c652062792061646d696e00000000000000000000604482015290519081900360640190fd5b6001600160a01b03831660009081526008602052604090205481906001600160801b03908116908216811015611473576040805162461bcd60e51b815260206004820152601f60248201527f696e73756666696369656e7420776974686472617761626c652066756e647300604482015290519081900360640190fd5b61148c6001600160801b0382168363ffffffff6130a716565b6001600160a01b038616600090815260086020526040902080546fffffffffffffffffffffffffffffffff19166001600160801b03928316179055600d546114dd91600160801b90910416836130a7565b600d80546001600160801b03928316600160801b029083161790556002546040805163a9059cbb60e01b81526001600160a01b03888116600483015293861660248201529051929091169163a9059cbb916044808201926020929091908290030181600087803b15801561155057600080fd5b505af1158015611564573d6000803e3d6000fd5b505050506040513d602081101561157a57600080fd5b5051610c5e57fe5b6060600c8054806020026020016040519081016040528092919081815260200182805480156115da57602002820191906000526020600020905b81546001600160a01b031681526001909101906020018083116115bc575b505050505090505b90565b600d546001600160801b031690565b6115fc61430d565b50604080518082018252600d546001600160801b038082168352600160801b90910416602080830182905260025484517f70a08231000000000000000000000000000000000000000000000000000000008152306004820152945193946000946116c694936001600160a01b03909316926370a082319260248082019391829003018186803b15801561168e57600080fd5b505afa1580156116a2573d6000803e3d6000fd5b505050506040513d60208110156116b857600080fd5b50519063ffffffff61311616565b82519091506001600160801b03168114610a8f57600d80546fffffffffffffffffffffffffffffffff19166001600160801b03831617905560405181907ffe25c73e3b9089fac37d55c4c7efcba6f04af04cebd2fc4d6d7dbb07e1e5234f90600090a25050565b600754640100000000900463ffffffff1660009081526009602052604090205490565b600381565b6002546001600160a01b031681565b600454600160801b900463ffffffff1681565b600c5490565b6001600160a01b038181166000908152600860205260409020600301541633146117ee576040805162461bcd60e51b815260206004820152601e60248201527f6f6e6c792063616c6c61626c652062792070656e64696e672061646d696e0000604482015290519081900360640190fd5b6001600160a01b0381166000818152600860205260408082206003810180546001600160a01b0319169055600201805475ffffffffffffffffffffffffffffffffffffffff00001916336201000081029190911790915590519092917f0c5055390645c15a4be9a21b3f8d019153dcb4a0c125685da6eb84048e2fe90491a350565b6001600160a01b03808216600090815260086020526040902060020154620100009004165b919050565b600754640100000000900463ffffffff1690565b600454600160e01b900463ffffffff1681565b6006805460408051602060026001851615610100026000190190941693909304601f810184900484028201840190925281815292918301828280156119475780601f1061191c57610100808354040283529160200191611947565b820191906000526020600020905b81548152906001019060200180831161192a57829003601f168201915b505050505081565b6001546001600160a01b031633146119ae576040805162461bcd60e51b815260206004820152601660248201527f4d7573742062652070726f706f736564206f776e657200000000000000000000604482015290519081900360640190fd5b60008054336001600160a01b0319808316821784556001805490911690556040516001600160a01b0390921692909183917f8be0079c531659141344cd1fd0a4f28419497f9722a3daafe3b4186f6b6457e091a350565b7f000000000000000000000000000000000000000000000000000000000000000081565b600754640100000000900463ffffffff16600090815260096020526040902060010154600160401b900467ffffffffffffffff1690565b600080808080808080333214611abd576040805162461bcd60e51b815260206004820152601660248201527f6f66662d636861696e2072656164696e67206f6e6c7900000000000000000000604482015290519081900360640190fd5b63ffffffff891615611ba25763ffffffff89166000908152600960209081526040808320600a909252909120611af38c8c61316d565b6001600160a01b038d1660009081526008602052604090206001908101548482015491840154600d548f9367ffffffffffffffff1691600160401b900463ffffffff16906001600160801b0316611b48611777565b600189015467ffffffffffffffff16611b6c576004546001600160801b0316611b82565b6001880154600160601b90046001600160801b03165b8363ffffffff169350995099509950995099509950995099505050611bbc565b611bab8a6131c3565b975097509750975097509750975097505b9295985092959890939650565b6000546001600160a01b031681565b336000908152600b602052604081205460ff16611c3c576040805162461bcd60e51b815260206004820152601860248201527f6e6f7420617574686f72697a6564207265717565737465720000000000000000604482015290519081900360640190fd5b60075463ffffffff16600081815260096020526040902060010154600160401b900467ffffffffffffffff16151580611c795750611c798161338f565b611cca576040805162461bcd60e51b815260206004820152601f60248201527f7072657620726f756e64206d75737420626520737570657273656461626c6500604482015290519081900360640190fd5b6000611ce163ffffffff8084169060019061341d16565b9050611cec81613480565b63ffffffff1691505090565b6000806000806000611d08614324565b5063ffffffff80871660009081526009602090815260409182902082516080810184528154815260019091015467ffffffffffffffff80821693830193909352600160401b810490921692810192909252600160801b90049091166060820181905215801590611d885750611d888769ffffffffffffffffffff16613558565b6040518060400160405280600f81526020017f4e6f20646174612070726573656e74000000000000000000000000000000000081525090611e0a5760405162461bcd60e51b8152602060048201818152835160248401528351909283926044909101919085019080838360008315610bdd578181015183820152602001610bc5565b508051602082015160408301516060909301519899919867ffffffffffffffff91821698509216955063ffffffff9091169350915050565b8015611e95576040805162461bcd60e51b815260206004820181905260248201527f7472616e7366657220646f65736e2774206163636570742063616c6c64617461604482015290519081900360640190fd5b611e9d6115f4565b50505050565b6000611eae82613558565b15611ecf575063ffffffff8116600090815260096020526040902054611895565b506000919050565b6000611ee282613558565b15611ecf575063ffffffff8116600090815260096020526040902060010154600160401b900467ffffffffffffffff16611895565b6000546001600160a01b03163314611f6f576040805162461bcd60e51b815260206004820152601660248201527527b7363c9031b0b63630b1363290313c9037bbb732b960511b604482015290519081900360640190fd5b600d546004546001600160801b03918216918391611f9e91611f919116612b82565b839063ffffffff61311616565b1015611ff1576040805162461bcd60e51b815260206004820152601a60248201527f696e73756666696369656e7420726573657276652066756e6473000000000000604482015290519081900360640190fd5b6002546040805163a9059cbb60e01b81526001600160a01b038681166004830152602482018690529151919092169163a9059cbb9160448083019260209291908290030181600087803b15801561204757600080fd5b505af115801561205b573d6000803e3d6000fd5b505050506040513d602081101561207157600080fd5b50516120c4576040805162461bcd60e51b815260206004820152601560248201527f746f6b656e207472616e73666572206661696c65640000000000000000000000604482015290519081900360640190fd5b610da06115f4565b6004546001600160801b031681565b600454600160a01b900463ffffffff1681565b600d54600160801b90046001600160801b031690565b6001600160a01b03166000908152600860205260409020546001600160801b031690565b6001600160a01b0382811660009081526008602052604090206002015462010000900416331461219f576040805162461bcd60e51b815260206004820152601660248201527f6f6e6c792063616c6c61626c652062792061646d696e00000000000000000000604482015290519081900360640190fd5b6001600160a01b0382811660008181526008602090815260409182902060030180546001600160a01b0319169486169485179055815133815290810193909352805191927fb79bf2e89c2d70dde91d2991fb1ea69b7e478061ad7c04ed5b02b96bc52b8104929081900390910190a25050565b6000546001600160a01b0316331461226a576040805162461bcd60e51b815260206004820152601660248201527527b7363c9031b0b63630b1363290313c9037bbb732b960511b604482015290519081900360640190fd5b600180546001600160a01b0319166001600160a01b0383811691821790925560008054604051929316917fed8889f560326eb138920d842192f0eb3dd22b4f139c87a2c57538e05bae12789190a350565b60008060008060006122e4600760049054906101000a900463ffffffff1663ffffffff16611cf8565b945094509450945094509091929394565b6001600160a01b03821660009081526008602052604090205460075460609163ffffffff600160801b9091048116911681612369576040518060400160405280601281526020017f6e6f7420656e61626c6564206f7261636c650000000000000000000000000000815250925050506125a4565b8363ffffffff168263ffffffff1611156123bc576040518060400160405280601681526020017f6e6f742079657420656e61626c6564206f7261636c6500000000000000000000815250925050506125a4565b6001600160a01b03851660009081526008602052604090205463ffffffff808616600160a01b90920416101561242b576040518060400160405280601881526020017f6e6f206c6f6e67657220616c6c6f776564206f7261636c650000000000000000815250925050506125a4565b6001600160a01b03851660009081526008602052604090205463ffffffff808616600160c01b9092041610612499576040518060400160405280602081526020017f63616e6e6f74207265706f7274206f6e2070726576696f757320726f756e6473815250925050506125a4565b8063ffffffff168463ffffffff16141580156124d557506124c563ffffffff8083169060019061341d16565b63ffffffff168463ffffffff1614155b80156124e857506124e68482613562565b155b1561252c576040518060400160405280601781526020017f696e76616c696420726f756e6420746f207265706f7274000000000000000000815250925050506125a4565b8363ffffffff1660011415801561255d575061255b61255663ffffffff808716906001906135c316565b613626565b155b156125a1576040518060400160405280601f81526020017f70726576696f757320726f756e64206e6f7420737570657273656461626c6500815250925050506125a4565b50505b92915050565b6125b381613661565b6125bc57612650565b3360009081526008602052604090205460045463ffffffff600160e01b909204821691600160c01b90910481168201908316118015906125fb57508015155b156126065750612650565b61260f82613692565b5033600090815260086020526040902080547bffffffffffffffffffffffffffffffffffffffffffffffffffffffff16600160e01b63ffffffff8416021790555b50565b61265c81613853565b6126ad576040805162461bcd60e51b815260206004820152601f60248201527f726f756e64206e6f7420616363657074696e67207375626d697373696f6e7300604482015290519081900360640190fd5b63ffffffff81166000818152600a602090815260408083208054600180820183559185528385200187905533808552600890935281842080547fffffffff00000000ffffffffffffffffffffffffffffffffffffffffffffffff16600160c01b8702178155018690555190929185917f92e98423f8adac6e64d0608e519fd1cefb861498385c6dee70d58fc926ddc68c9190a45050565b63ffffffff8082166000908152600a6020526040812060018101549054919283926401000000009092041611156127805750600090508061289f565b63ffffffff83166000908152600a6020908152604080832080548251818502810185019093528083526127e6938301828280156127dc57602002820191906000526020600020905b8154815260200190600101908083116127c8575b5050505050613873565b63ffffffff851660008181526009602090815260409182902084815560010180546fffffffffffffffff00000000000000001916600160401b4267ffffffffffffffff8116919091029190911763ffffffff60801b1916600160801b8602179091556007805467ffffffff000000001916640100000000860217905582519081529151939450919284927f0559884fd3a460db3073b7fc896cc77986f16e378210ded43186175bf646fc5f928290030190a36001925090505b915091565b63ffffffff81166000908152600a6020526040902060010154600160601b90046001600160801b03166128d561430d565b5060408051808201909152600d546001600160801b03808216808452600160801b90920416602083015261290f908363ffffffff6130a716565b6001600160801b039081168252602082015161293291168363ffffffff61392316565b6001600160801b0390811660208084018290528351600d8054600160801b9094029185166fffffffffffffffffffffffffffffffff19909416939093178416179091553360009081526008909152604090205461299691168363ffffffff61392316565b3360009081526008602052604080822080546fffffffffffffffffffffffffffffffff19166001600160801b03948516179055835190519216917ffe25c73e3b9089fac37d55c4c7efcba6f04af04cebd2fc4d6d7dbb07e1e5234f9190a2505050565b63ffffffff8082166000908152600a602052604090206001810154905491161115612a2357612650565b63ffffffff81166000908152600a6020526040812090612a43828261434b565b5060010180547fffffffff0000000000000000000000000000000000000000000000000000000016905550565b6003546001600160a01b031680612a875750610a8f565b6000612a9e63ffffffff808616906001906135c316565b63ffffffff80821660009081526009602090815260408083206001810154905482517fbeed9b51000000000000000000000000000000000000000000000000000000008152600160801b90920486166004830181905260248301829052958b166044830152606482018a90529151959650939490936001600160a01b0388169363beed9b5193620186a093608480850194929391928390030190829088803b158015612b4957600080fd5b5087f193505050508015612b6f57506040513d6020811015612b6a57600080fd5b505160015b612b7857612b7a565b505b505050505050565b60006125a46002612ba4612b94611777565b859060ff1663ffffffff61398916565b9063ffffffff61398916565b612bb9816139e2565b612c0a576040805162461bcd60e51b815260206004820152601260248201527f6f7261636c65206e6f7420656e61626c65640000000000000000000000000000604482015290519081900360640190fd5b600754612c239063ffffffff9081169060019061341d16565b6001600160a01b0382166000908152600860205260408120805463ffffffff93909316600160a01b0263ffffffff60a01b1990931692909217909155600c612c7d6001612c6e611777565b60ff169063ffffffff61311616565b81548110612c8757fe5b6000918252602080832091909101546001600160a01b0385811680855260089093526040808520600290810180549390941680875291862001805461ffff90931661ffff199384168117909155939094528154169055600c8054929350909183919083908110612cf357fe5b9060005260206000200160006101000a8154816001600160a01b0302191690836001600160a01b03160217905550600c805480612d2c57fe5b600082815260208120820160001990810180546001600160a01b03191690559091019091556040516001600160a01b038516907f18dd09695e4fbdae8d1a5edb11221eb04564269c29a089b9753a6535c54ba92e908390a3505050565b600082820183811015612de3576040805162461bcd60e51b815260206004820152601b60248201527f536166654d6174683a206164646974696f6e206f766572666c6f770000000000604482015290519081900360640190fd5b9392505050565b612df3826139e2565b15612e45576040805162461bcd60e51b815260206004820152601660248201527f6f7261636c6520616c726561647920656e61626c656400000000000000000000604482015290519081900360640190fd5b6001600160a01b038116612ea0576040805162461bcd60e51b815260206004820152601560248201527f63616e6e6f74207365742061646d696e20746f20300000000000000000000000604482015290519081900360640190fd5b6001600160a01b03828116600090815260086020526040902060020154620100009004161580612ef557506001600160a01b038281166000908152600860205260409020600201546201000090048116908216145b612f46576040805162461bcd60e51b815260206004820152601c60248201527f6f776e65722063616e6e6f74206f76657277726974652061646d696e00000000604482015290519081900360640190fd5b612f4f82613a0d565b6001600160a01b03808416600081815260086020526040808220805463ffffffff60a01b1963ffffffff97909716600160801b0263ffffffff60801b19909116179590951677ffffffff0000000000000000000000000000000000000000178555600c80546002909601805461ffff90971661ffff19909716969096178655805460018181019092557fdf6966c971051c3d54ec59162606531493a51404a002842f56009d7e5cf4a8c70180546001600160a01b031916851790558383528554948716620100000275ffffffffffffffffffffffffffffffffffffffff000019909516949094179094559251919290917f18dd09695e4fbdae8d1a5edb11221eb04564269c29a089b9753a6535c54ba92e9190a3806001600160a01b0316826001600160a01b03167f0c5055390645c15a4be9a21b3f8d019153dcb4a0c125685da6eb84048e2fe90460405160405180910390a35050565b6000826001600160801b0316826001600160801b03161115613110576040805162461bcd60e51b815260206004820152601e60248201527f536166654d6174683a207375627472616374696f6e206f766572666c6f770000604482015290519081900360640190fd5b50900390565b600082821115613110576040805162461bcd60e51b815260206004820152601e60248201527f536166654d6174683a207375627472616374696f6e206f766572666c6f770000604482015290519081900360640190fd5b63ffffffff811660009081526009602052604081206001015467ffffffffffffffff16156131b95761319e82613853565b80156131b257506131af83836122f5565b51155b90506125a4565b61319e8383613a70565b6001600160a01b0381166000908152600860205260408120600754815483928392839283928392839283927fec8156718a8372b1db44bb411437d0870f3e3790d4a08526d024ce1b0b668f6b929091849163ffffffff908116600160c01b909204161480613240575060075461323e9063ffffffff16613853565b155b6007549091506132559063ffffffff16613626565b801561325e5750805b156132b75760075461327c9063ffffffff9081169060019061341d16565b63ffffffff81166000908152600960205260409020600454919b506001600160801b03909116945092506132b08c8b613a70565b9a50613301565b60075463ffffffff166000818152600960209081526040808320600a90925290912060010154919b50600160601b9091046001600160801b0316945092506132fe8a613853565b9a505b61330b8c8b6122f5565b51156133165760009a505b6001808301548482015463ffffffff808e166000908152600a6020526040902090930154600d548f948f949367ffffffffffffffff1692600160401b900416906001600160801b0316613367611777565b8a8363ffffffff1693509a509a509a509a509a509a509a509a50505050919395975091939597565b63ffffffff8082166000908152600960209081526040808320600190810154600a9093529083200154919267ffffffffffffffff90911691600160401b90041681158015906133e4575060008163ffffffff16115b801561341557504261340967ffffffffffffffff841663ffffffff80851690613aba16565b67ffffffffffffffff16105b949350505050565b600082820163ffffffff8085169082161015612de3576040805162461bcd60e51b815260206004820152601b60248201527f536166654d6174683a206164646974696f6e206f766572666c6f770000000000604482015290519081900360640190fd5b61348981613661565b61349257612650565b336000908152600b602052604090205463ffffffff65010000000000820481169161010090048116820190831611806134c9575080155b61351a576040805162461bcd60e51b815260206004820152601360248201527f6d7573742064656c617920726571756573747300000000000000000000000000604482015290519081900360640190fd5b61352382613692565b50336000908152600b60205260409020805463ffffffff8316650100000000000268ffffffff00000000001990911617905550565b63ffffffff101590565b60008163ffffffff1661358560018563ffffffff1661341d90919063ffffffff16565b63ffffffff16148015612de357505063ffffffff16600090815260096020526040902060010154600160401b900467ffffffffffffffff1615919050565b60008263ffffffff168263ffffffff161115613110576040805162461bcd60e51b815260206004820152601e60248201527f536166654d6174683a207375627472616374696f6e206f766572666c6f770000604482015290519081900360640190fd5b63ffffffff8116600090815260096020526040812060010154600160401b900467ffffffffffffffff161515806125a457506125a48261338f565b60075460009061367d9063ffffffff9081169060019061341d16565b63ffffffff168263ffffffff16149050919050565b6136af6136aa63ffffffff808416906001906135c316565b613b21565b6007805463ffffffff191663ffffffff83161790556136cc614369565b5060408051600060a0820181815260c083018452825260045463ffffffff600160801b82048116602080860191909152600160a01b8304821685870152600160e01b8304821660608601526001600160801b03909216608085015285168252600a815292902081518051929384936137479284920190614397565b5060208281015160019283018054604080870151606088015160809098015163ffffffff1990931663ffffffff9586161767ffffffff00000000191664010000000091861691909102176bffffffff00000000000000001916600160401b97851697909702969096177fffffffff00000000000000000000000000000000ffffffffffffffffffffffff16600160601b6001600160801b03909216919091021790558516600081815260098352849020909201805467ffffffffffffffff19164267ffffffffffffffff9081169190911791829055845191168152925133937f0109fc6f55cf40689f02fbaad7af7fe7bbac8a3d2186600afc7d3e10cac6027192908290030190a35050565b63ffffffff9081166000908152600a602052604090206001015416151590565b600081516000106138cb576040805162461bcd60e51b815260206004820152601660248201527f6c697374206d757374206e6f7420626520656d70747900000000000000000000604482015290519081900360640190fd5b8151600281046001821661390a576000806138f0866000600187036001870387613c01565b90925090506138ff8282613cdf565b945050505050611895565b61391a8460006001850384613d4d565b92505050611895565b60008282016001600160801b038085169082161015612de3576040805162461bcd60e51b815260206004820152601b60248201527f536166654d6174683a206164646974696f6e206f766572666c6f770000000000604482015290519081900360640190fd5b600082613998575060006125a4565b828202828482816139a557fe5b0414612de35760405162461bcd60e51b815260040180806020018281038252602181526020018061441e6021913960400191505060405180910390fd5b6001600160a01b031660009081526008602052604090205463ffffffff600160a01b90910481161490565b60075460009063ffffffff168015801590613a4f57506001600160a01b03831660009081526008602052604090205463ffffffff828116600160a01b90920416145b15613a5b579050611895565b612de363ffffffff8083169060019061341d16565b6001600160a01b03821660009081526008602052604081205460045463ffffffff600160e01b909204821691600160c01b9091048116820190841611806134155750159392505050565b600082820167ffffffffffffffff8085169082161015612de3576040805162461bcd60e51b815260206004820152601b60248201527f536166654d6174683a206164646974696f6e206f766572666c6f770000000000604482015290519081900360640190fd5b613b2a8161338f565b613b3357612650565b6000613b4a63ffffffff808416906001906135c316565b63ffffffff8181166000908152600960209081526040808320805488861685528285209081556001918201549101805463ffffffff60801b1916600160801b92839004909616909102949094176fffffffffffffffff00000000000000001916600160401b4267ffffffffffffffff160217909355600a9052908120919250613bd3828261434b565b5060010180547fffffffff000000000000000000000000000000000000000000000000000000001690555050565b600080828410613c1057600080fd5b838611158015613c205750848411155b613c2957600080fd5b828611158015613c395750848311155b613c4257600080fd5b60078686031015613c6357613c5a8787878787613dde565b91509150613cd5565b6000613c708888886141cb565b9050808411613c8157809550613ccf565b84811015613c9457806001019650613ccf565b808511158015613ca357508381105b613ca957fe5b613cb588888388613d4d565b9250613cc688826001018887613d4d565b9150613cd59050565b50613c42565b9550959350505050565b60008083128015613cf05750600082135b80613d065750600083138015613d065750600082125b15613d26576002613d1784846142a8565b81613d1e57fe5b0590506125a4565b6000600280850781850701059050613415613d4760028605600286056142a8565b826142a8565b600081841115613d5c57600080fd5b82821115613d6957600080fd5b82841015613dc05760078484031015613d95576000613d8b8686868687613dde565b5091506134159050565b6000613da28686866141cb565b9050808311613db357809350613dba565b8060010194505b50613d69565b848481518110613dcc57fe5b60200260200101519050949350505050565b600080600086866001010390506000888860000181518110613dfc57fe5b60200260200101519050600082600110613e1d576001600160ff1b03613e35565b898960010181518110613e2c57fe5b60200260200101515b9050600083600210613e4e576001600160ff1b03613e66565b8a8a60020181518110613e5d57fe5b60200260200101515b9050600084600310613e7f576001600160ff1b03613e97565b8b8b60030181518110613e8e57fe5b60200260200101515b9050600085600410613eb0576001600160ff1b03613ec8565b8c8c60040181518110613ebf57fe5b60200260200101515b9050600086600510613ee1576001600160ff1b03613ef9565b8d8d60050181518110613ef057fe5b60200260200101515b9050600087600610613f12576001600160ff1b03613f2a565b8e8e60060181518110613f2157fe5b60200260200101515b905085871315613f38579495945b83851315613f44579293925b81831315613f50579091905b84871315613f5c579395935b83861315613f68579294925b80831315613f7257915b84861315613f7e579394935b80821315613f8857905b82871315613f94579195915b81861315613fa0579094905b80851315613faa57935b82861315613fb6579194915b80841315613fc057925b82851315613fcc579193915b81841315613fd8579092905b82841315613fe4579192915b8d8c0380613ff457879a506140a7565b806001141561400557869a506140a7565b806002141561401657859a506140a7565b806003141561402757849a506140a7565b806004141561403857839a506140a7565b806005141561404957829a506140a7565b806006141561405a57819a506140a7565b6040805162461bcd60e51b815260206004820152601060248201527f6b31206f7574206f6620626f756e647300000000000000000000000000000000604482015290519081900360640190fd5b8e8c038d8d14156140c557508a9950613cd598505050505050505050565b806140dc5750969850613cd5975050505050505050565b80600114156140f75750959850613cd5975050505050505050565b80600214156141125750949850613cd5975050505050505050565b806003141561412d5750939850613cd5975050505050505050565b80600414156141485750929850613cd5975050505050505050565b80600514156141635750919850613cd5975050505050505050565b806006141561417e5750909850613cd5975050505050505050565b6040805162461bcd60e51b815260206004820152601060248201527f6b32206f7574206f6620626f756e647300000000000000000000000000000000604482015290519081900360640190fd5b60008084600285850104815181106141df57fe5b602002602001015190506001840393506001830192505b6001840193508085858151811061420957fe5b6020026020010151126141f6575b6001830392508085848151811061422a57fe5b602002602001015113614217578284101561429a5784838151811061424b57fe5b602002602001015185858151811061425f57fe5b602002602001015186868151811061427357fe5b6020026020010187868151811061428657fe5b6020908102919091010191909152526142a3565b82915050612de3565b6141f6565b60008282018183128015906142bd5750838112155b806142d257506000831280156142d257508381125b612de35760405162461bcd60e51b81526004018080602001828103825260218152602001806143fd6021913960400191505060405180910390fd5b604080518082019091526000808252602082015290565b60408051608081018252600080825260208201819052918101829052606081019190915290565b508054600082559060005260206000209081019061265091906143e2565b6040805160a08101825260608082526000602083018190529282018390528101829052608081019190915290565b8280548282559060005260206000209081019282156143d2579160200282015b828111156143d25782518255916020019190600101906143b7565b506143de9291506143e2565b5090565b6115e291905b808211156143de57600081556001016143e856fe5369676e6564536166654d6174683a206164646974696f6e206f766572666c6f77536166654d6174683a206d756c7469706c69636174696f6e206f766572666c6f77a2646970667358221220942a30e384577bdf3a4dcee088af915d0ed4d4ba217b7aa538918cf8bc81c6cf64736f6c63430006060033536166654d6174683a206d756c7469706c69636174696f6e206f766572666c6f77",
  "devdoc": {
    "methods": {
      "acceptAdmin(address)": {
        "params": {
          "_oracle": "is the address of the oracle whose admin is being transferred"
        }
      },
      "acceptOwnership()": {
        "details": "Allows an ownership transfer to be completed by the recipient."
      },
      "changeOracles(address[],address[],address[],uint32,uint32,uint32)": {
        "params": {
          "_added": "is the list of addresses for the new Oracles being added",
          "_addedAdmins": "is the admin addresses for the new respective _added list. Only this address is allowed to access the respective oracle's funds",
          "_maxSubmissions": "is the new maximum submission count for each round",
          "_minSubmissions": "is the new minimum submission count for each round",
          "_removed": "is the list of addresses for the new Oracles being removed",
          "_restartDelay": "is the number of rounds an Oracle has to wait before they can initiate a round"
        }
      },
      "constructor": {
        "params": {
          "_decimals": "represents the number of decimals to offset the answer by",
          "_description": "a short description of what is being reported",
          "_link": "The address of the LINK token",
          "_maxSubmissionValue": "is an immutable check for an upper bound of what submission values are accepted from an oracle",
          "_minSubmissionValue": "is an immutable check for a lower bound of what submission values are accepted from an oracle",
          "_paymentAmount": "The amount paid of LINK paid to each oracle per submission, in wei (units of 10 LINK)",
          "_timeout": "is the number of seconds after the previous round that are allowed to lapse before allowing an oracle to skip an unfinished round",
          "_validator": "is an optional contract address for validating external validation of answers"
        }
      },
      "getAdmin(address)": {
        "params": {
          "_oracle": "is the address of the oracle whose admin is being queried"
        }
      },
      "getAnswer(uint256)": {
        "details": "#[deprecated] Use getRoundData instead. This does not error if no answer has been reached, it will simply return 0. Either wait to point to an already answered Aggregator or use the recommended getRoundData instead which includes better verification information.",
        "params": {
          "_roundId": "the round number to retrieve the answer for"
        }
      },
      "getRoundData(uint80)": {
        "details": "Note that for in-progress rounds (i.e. rounds that haven't yet received maxSubmissions) answer and updatedAt may change between queries.",
        "params": {
          "_roundId": "the round ID to retrieve the round data for"
        },
        "returns": {
          "answer": "is the answer for the given round",
          "answeredInRound": "is the round ID of the round in which the answer was computed. answeredInRound may be smaller than roundId when the round timed out. answeredInRound is equal to roundId when the round didn't time out and was completed regularly.",
          "roundId": "is the round ID for which data was retrieved",
          "startedAt": "is the timestamp when the round was started. This is 0 if the round hasn't been started yet.",
          "updatedAt": "is the timestamp when the round last was updated (i.e. answer was last computed)"
        }
      },
      "getTimestamp(uint256)": {
        "details": "#[deprecated] Use getRoundData instead. This does not error if no answer has been reached, it will simply return 0. Either wait to point to an already answered Aggregator or use the recommended getRoundData instead which includes better verification information.",
        "params": {
          "_roundId": "the round number to retrieve the updated timestamp for"
        }
      },
      "latestAnswer()": {
        "details": "#[deprecated] Use latestRoundData instead. This does not error if no answer has been reached, it will simply return 0. Either wait to point to an already answered Aggregator or use the recommended latestRoundData instead which includes better verification information."
      },
      "latestRound()": {
        "details": "#[deprecated] Use latestRoundData instead. This does not error if no answer has been reached, it will simply return 0. Either wait to point to an already answered Aggregator or use the recommended latestRoundData instead which includes better verification information."
      },
      "latestRoundData()": {
        "details": "Note that for in-progress rounds (i.e. rounds that haven't yet received maxSubmissions) answer and updatedAt may change between queries.",
        "returns": {
          "answer": "is the answer for the given round",
          "answeredInRound": "is the round ID of the round in which the answer was computed. answeredInRound may be smaller than roundId when the round timed out. answeredInRound is equal to roundId when the round didn't time out and was completed regularly.",
          "roundId": "is the round ID for which data was retrieved",
          "startedAt": "is the timestamp when the round was started. This is 0 if the round hasn't been started yet.",
          "updatedAt": "is the timestamp when the round last was updated (i.e. answer was last computed)"
        }
      },
      "latestTimestamp()": {
        "details": "#[deprecated] Use latestRoundData instead. This does not error if no answer has been reached, it will simply return 0. Either wait to point to an already answered Aggregator or use the recommended latestRoundData instead which includes better verification information."
      },
      "onTokenTransfer(address,uint256,bytes)": {
        "params": {
          "_data": "is mostly ignored. It is checked for length, to be sure nothing strange is passed in."
        }
      },
      "oracleRoundState(address,uint32)": {
        "params": {
          "_oracle": "the address to look up information for."
        }
      },
      "setRequesterPermissions(address,bool,uint32)": {
        "params": {
          "_authorized": "is a boolean specifying whether they can start new rounds or not",
          "_delay": "is the number of rounds the requester must wait before starting another round",
          "_requester": "is the address to set permissions for"
        }
      },
      "setValidator(address)": {
        "params": {
          "_newValidator": "designates the address of the new validation contract."
        }
      },
      "submit(uint256,int256)": {
        "params": {
          "_roundId": "is the ID of the round this submission pertains to",
          "_submission": "is the updated data that the oracle is submitting"
        }
      },
      "transferAdmin(address,address)": {
        "params": {
          "_newAdmin": "is the new admin address",
          "_oracle": "is the address of the oracle whose admin is being transferred"
        }
      },
      "transferOwnership(address)": {
        "details": "Allows an owner to begin transferring ownership to a new address, pending."
      },
      "updateFutureRounds(uint128,uint32,uint32,uint32,uint32)": {
        "params": {
          "_maxSubmissions": "is the new maximum submission count for each round",
          "_minSubmissions": "is the new minimum submission count for each round",
          "_paymentAmount": "is the payment amount for subsequent rounds",
          "_restartDelay": "is the number of rounds an Oracle has to wait before they can initiate a round"
        }
      },
      "withdrawFunds(address,uint256)": {
        "params": {
          "_amount": "is the amount of LINK to send",
          "_recipient": "is the address to send the LINK to"
        }
      },
      "withdrawPayment(address,address,uint256)": {
        "params": {
          "_amount": "is the amount of LINK to send",
          "_oracle": "is the oracle whose LINK is transferred",
          "_recipient": "is the address to send the LINK to"
        }
      }
    },
    "title": "The Prepaid Aggregator contract"
  },
  "userdoc": {
    "methods": {
      "acceptAdmin(address)": {
        "notice": "accept the admin address transfer for an oracle"
      },
      "allocatedFunds()": {
        "notice": "the amount of payment yet to be withdrawn by oracles"
      },
      "availableFunds()": {
        "notice": "the amount of future funding available to oracles"
      },
      "changeOracles(address[],address[],address[],uint32,uint32,uint32)": {
        "notice": "called by the owner to remove and add new oracles as well as update the round related parameters that pertain to total oracle count"
      },
      "constructor": "set up the aggregator with initial configuration",
      "getAdmin(address)": {
        "notice": "get the admin address of an oracle"
      },
      "getAnswer(uint256)": {
        "notice": "get past rounds answers"
      },
      "getOracles()": {
        "notice": "returns an array of addresses containing the oracles on contract"
      },
      "getRoundData(uint80)": {
        "notice": "get data about a round. Consumers are encouraged to check that they're receiving fresh data by inspecting the updatedAt and answeredInRound return values."
      },
      "getTimestamp(uint256)": {
        "notice": "get timestamp when an answer was last updated"
      },
      "latestAnswer()": {
        "notice": "get the most recently reported answer"
      },
      "latestRound()": {
        "notice": "get the ID of the last updated round"
      },
      "latestRoundData()": {
        "notice": "get data about the latest round. Consumers are encouraged to check that they're receiving fresh data by inspecting the updatedAt and answeredInRound return values. Consumers are encouraged to use this more fully featured method over the \"legacy\" latestRound/ latestAnswer/latestTimestamp functions. Consumers are encouraged to check that they're receiving fresh data by inspecting the updatedAt and answeredInRound return values."
      },
      "latestTimestamp()": {
        "notice": "get the most recent updated at timestamp"
      },
      "onTokenTransfer(address,uint256,bytes)": {
        "notice": "called through LINK's transferAndCall to update available funds in the same transaction as the funds were transferred to the aggregator"
      },
      "oracleCount()": {
        "notice": "returns the number of oracles"
      },
      "oracleRoundState(address,uint32)": {
        "notice": "a method to provide all current info oracles need. Intended only only to be callable by oracles. Not for use by contracts to read state."
      },
      "requestNewRound()": {
        "notice": "allows non-oracles to request a new round"
      },
      "setRequesterPermissions(address,bool,uint32)": {
        "notice": "allows the owner to specify new non-oracles to start new rounds"
      },
      "setValidator(address)": {
        "notice": "method to update the address which does external data validation."
      },
      "submit(uint256,int256)": {
        "notice": "called by oracles when they have witnessed a need to update"
      },
      "transferAdmin(address,address)": {
        "notice": "transfer the admin address for an oracle"
      },
      "updateAvailableFunds()": {
        "notice": "recalculate the amount of LINK available for payouts"
      },
      "updateFutureRounds(uint128,uint32,uint32,uint32,uint32)": {
        "notice": "update the round and payment related parameters for subsequent rounds"
      },
      "withdrawFunds(address,uint256)": {
        "notice": "transfers the owner's LINK to another address"
      },
      "withdrawPayment(address,address,uint256)": {
        "notice": "transfers the oracle's LINK to another address. Can only be called by the oracle's admin."
      },
      "withdrawablePayment(address)": {
        "notice": "query the available amount of LINK for an oracle to withdraw"
      }
    },
    "notice": "Handles aggregating data pushed in from off-chain, and unlocks payment for oracles as they report. Oracles' submissions are gathered in rounds, with each round aggregating the submissions for each oracle into a single answer. The latest aggregated answer is exposed as well as historical answers and their updated at timestamp."
  },
  "storageLayout": {
    "storage": [
      {
        "astId": 3309,
        "contract": "@chainlink/contracts/src/v0.6/FluxAggregator.sol:FluxAggregator",
        "label": "owner",
        "offset": 0,
        "slot": "0",
        "type": "t_address"
      },
      {
        "astId": 3311,
        "contract": "@chainlink/contracts/src/v0.6/FluxAggregator.sol:FluxAggregator",
        "label": "pendingOwner",
        "offset": 0,
        "slot": "1",
        "type": "t_address"
      },
      {
        "astId": 81,
        "contract": "@chainlink/contracts/src/v0.6/FluxAggregator.sol:FluxAggregator",
        "label": "linkToken",
        "offset": 0,
        "slot": "2",
        "type": "t_contract(LinkTokenInterface)4270"
      },
      {
        "astId": 83,
        "contract": "@chainlink/contracts/src/v0.6/FluxAggregator.sol:FluxAggregator",
        "label": "validator",
        "offset": 0,
        "slot": "3",
        "type": "t_contract(AggregatorValidatorInterface)4175"
      },
      {
        "astId": 85,
        "contract": "@chainlink/contracts/src/v0.6/FluxAggregator.sol:FluxAggregator",
        "label": "paymentAmount",
        "offset": 0,
        "slot": "4",
        "type": "t_uint128"
      },
      {
        "astId": 87,
        "contract": "@chainlink/contracts/src/v0.6/FluxAggregator.sol:FluxAggregator",
        "label": "maxSubmissionCount",
        "offset": 16,
        "slot": "4",
        "type": "t_uint32"
      },
      {
        "astId": 89,
        "contract": "@chainlink/contracts/src/v0.6/FluxAggregator.sol:FluxAggregator",
        "label": "minSubmissionCount",
        "offset": 20,
        "slot": "4",
        "type": "t_uint32"
      },
      {
        "astId": 91,
        "contract": "@chainlink/contracts/src/v0.6/FluxAggregator.sol:FluxAggregator",
        "label": "restartDelay",
        "offset": 24,
        "slot": "4",
        "type": "t_uint32"
      },
      {
        "astId": 93,
        "contract": "@chainlink/contracts/src/v0.6/FluxAggregator.sol:FluxAggregator",
        "label": "timeout",
        "offset": 28,
        "slot": "4",
        "type": "t_uint32"
      },
      {
        "astId": 96,
        "contract": "@chainlink/contracts/src/v0.6/FluxAggregator.sol:FluxAggregator",
        "label": "decimals",
        "offset": 0,
        "slot": "5",
        "type": "t_uint8"
      },
      {
        "astId": 99,
        "contract": "@chainlink/contracts/src/v0.6/FluxAggregator.sol:FluxAggregator",
        "label": "description",
        "offset": 0,
        "slot": "6",
        "type": "t_string_storage"
      },
      {
        "astId": 128,
        "contract": "@chainlink/contracts/src/v0.6/FluxAggregator.sol:FluxAggregator",
        "label": "reportingRoundId",
        "offset": 0,
        "slot": "7",
        "type": "t_uint32"
      },
      {
        "astId": 130,
        "contract": "@chainlink/contracts/src/v0.6/FluxAggregator.sol:FluxAggregator",
        "label": "latestRoundId",
        "offset": 4,
        "slot": "7",
        "type": "t_uint32"
      },
      {
        "astId": 134,
        "contract": "@chainlink/contracts/src/v0.6/FluxAggregator.sol:FluxAggregator",
        "label": "oracles",
        "offset": 0,
        "slot": "8",
        "type": "t_mapping(t_address,t_struct(OracleStatus)67_storage)"
      },
      {
        "astId": 138,
        "contract": "@chainlink/contracts/src/v0.6/FluxAggregator.sol:FluxAggregator",
        "label": "rounds",
        "offset": 0,
        "slot": "9",
        "type": "t_mapping(t_uint32,t_struct(Round)36_storage)"
      },
      {
        "astId": 142,
        "contract": "@chainlink/contracts/src/v0.6/FluxAggregator.sol:FluxAggregator",
        "label": "details",
        "offset": 0,
        "slot": "10",
        "type": "t_mapping(t_uint32,t_struct(RoundDetails)48_storage)"
      },
      {
        "astId": 146,
        "contract": "@chainlink/contracts/src/v0.6/FluxAggregator.sol:FluxAggregator",
        "label": "requesters",
        "offset": 0,
        "slot": "11",
        "type": "t_mapping(t_address,t_struct(Requester)74_storage)"
      },
      {
        "astId": 149,
        "contract": "@chainlink/contracts/src/v0.6/FluxAggregator.sol:FluxAggregator",
        "label": "oracleAddresses",
        "offset": 0,
        "slot": "12",
        "type": "t_array(t_address)dyn_storage"
      },
      {
        "astId": 151,
        "contract": "@chainlink/contracts/src/v0.6/FluxAggregator.sol:FluxAggregator",
        "label": "recordedFunds",
        "offset": 0,
        "slot": "13",
        "type": "t_struct(Funds)79_storage"
      }
    ],
    "types": {
      "t_address": {
        "encoding": "inplace",
        "label": "address",
        "numberOfBytes": "20"
      },
      "t_array(t_address)dyn_storage": {
        "base": "t_address",
        "encoding": "dynamic_array",
        "label": "address[]",
        "numberOfBytes": "32"
      },
      "t_array(t_int256)dyn_storage": {
        "base": "t_int256",
        "encoding": "dynamic_array",
        "label": "int256[]",
        "numberOfBytes": "32"
      },
      "t_bool": {
        "encoding": "inplace",
        "label": "bool",
        "numberOfBytes": "1"
      },
      "t_contract(AggregatorValidatorInterface)4175": {
        "encoding": "inplace",
        "label": "contract AggregatorValidatorInterface",
        "numberOfBytes": "20"
      },
      "t_contract(LinkTokenInterface)4270": {
        "encoding": "inplace",
        "label": "contract LinkTokenInterface",
        "numberOfBytes": "20"
      },
      "t_int256": {
        "encoding": "inplace",
        "label": "int256",
        "numberOfBytes": "32"
      },
      "t_mapping(t_address,t_struct(OracleStatus)67_storage)": {
        "encoding": "mapping",
        "key": "t_address",
        "label": "mapping(address => struct FluxAggregator.OracleStatus)",
        "numberOfBytes": "32",
        "value": "t_struct(OracleStatus)67_storage"
      },
      "t_mapping(t_address,t_struct(Requester)74_storage)": {
        "encoding": "mapping",
        "key": "t_address",
        "label": "mapping(address => struct FluxAggregator.Requester)",
        "numberOfBytes": "32",
        "value": "t_struct(Requester)74_storage"
      },
      "t_mapping(t_uint32,t_struct(Round)36_storage)": {
        "encoding": "mapping",
        "key": "t_uint32",
        "label": "mapping(uint32 => struct FluxAggregator.Round)",
        "numberOfBytes": "32",
        "value": "t_struct(Round)36_storage"
      },
      "t_mapping(t_uint32,t_struct(RoundDetails)48_storage)": {
        "encoding": "mapping",
        "key": "t_uint32",
        "label": "mapping(uint32 => struct FluxAggregator.RoundDetails)",
        "numberOfBytes": "32",
        "value": "t_struct(RoundDetails)48_storage"
      },
      "t_string_storage": {
        "encoding": "bytes",
        "label": "string",
        "numberOfBytes": "32"
      },
      "t_struct(Funds)79_storage": {
        "encoding": "inplace",
        "label": "struct FluxAggregator.Funds",
        "members": [
          {
            "astId": 76,
            "contract": "@chainlink/contracts/src/v0.6/FluxAggregator.sol:FluxAggregator",
            "label": "available",
            "offset": 0,
            "slot": "0",
            "type": "t_uint128"
          },
          {
            "astId": 78,
            "contract": "@chainlink/contracts/src/v0.6/FluxAggregator.sol:FluxAggregator",
            "label": "allocated",
            "offset": 16,
            "slot": "0",
            "type": "t_uint128"
          }
        ],
        "numberOfBytes": "32"
      },
      "t_struct(OracleStatus)67_storage": {
        "encoding": "inplace",
        "label": "struct FluxAggregator.OracleStatus",
        "members": [
          {
            "astId": 50,
            "contract": "@chainlink/contracts/src/v0.6/FluxAggregator.sol:FluxAggregator",
            "label": "withdrawable",
            "offset": 0,
            "slot": "0",
            "type": "t_uint128"
          },
          {
            "astId": 52,
            "contract": "@chainlink/contracts/src/v0.6/FluxAggregator.sol:FluxAggregator",
            "label": "startingRound",
            "offset": 16,
            "slot": "0",
            "type": "t_uint32"
          },
          {
            "astId": 54,
            "contract": "@chainlink/contracts/src/v0.6/FluxAggregator.sol:FluxAggregator",
            "label": "endingRound",
            "offset": 20,
            "slot": "0",
            "type": "t_uint32"
          },
          {
            "astId": 56,
            "contract": "@chainlink/contracts/src/v0.6/FluxAggregator.sol:FluxAggregator",
            "label": "lastReportedRound",
            "offset": 24,
            "slot": "0",
            "type": "t_uint32"
          },
          {
            "astId": 58,
            "contract": "@chainlink/contracts/src/v0.6/FluxAggregator.sol:FluxAggregator",
            "label": "lastStartedRound",
            "offset": 28,
            "slot": "0",
            "type": "t_uint32"
          },
          {
            "astId": 60,
            "contract": "@chainlink/contracts/src/v0.6/FluxAggregator.sol:FluxAggregator",
            "label": "latestSubmission",
            "offset": 0,
            "slot": "1",
            "type": "t_int256"
          },
          {
            "astId": 62,
            "contract": "@chainlink/contracts/src/v0.6/FluxAggregator.sol:FluxAggregator",
            "label": "index",
            "offset": 0,
            "slot": "2",
            "type": "t_uint16"
          },
          {
            "astId": 64,
            "contract": "@chainlink/contracts/src/v0.6/FluxAggregator.sol:FluxAggregator",
            "label": "admin",
            "offset": 2,
            "slot": "2",
            "type": "t_address"
          },
          {
            "astId": 66,
            "contract": "@chainlink/contracts/src/v0.6/FluxAggregator.sol:FluxAggregator",
            "label": "pendingAdmin",
            "offset": 0,
            "slot": "3",
            "type": "t_address"
          }
        ],
        "numberOfBytes": "128"
      },
      "t_struct(Requester)74_storage": {
        "encoding": "inplace",
        "label": "struct FluxAggregator.Requester",
        "members": [
          {
            "astId": 69,
            "contract": "@chainlink/contracts/src/v0.6/FluxAggregator.sol:FluxAggregator",
            "label": "authorized",
            "offset": 0,
            "slot": "0",
            "type": "t_bool"
          },
          {
            "astId": 71,
            "contract": "@chainlink/contracts/src/v0.6/FluxAggregator.sol:FluxAggregator",
            "label": "delay",
            "offset": 1,
            "slot": "0",
            "type": "t_uint32"
          },
          {
            "astId": 73,
            "contract": "@chainlink/contracts/src/v0.6/FluxAggregator.sol:FluxAggregator",
            "label": "lastStartedRound",
            "offset": 5,
            "slot": "0",
            "type": "t_uint32"
          }
        ],
        "numberOfBytes": "32"
      },
      "t_struct(Round)36_storage": {
        "encoding": "inplace",
        "label": "struct FluxAggregator.Round",
        "members": [
          {
            "astId": 29,
            "contract": "@chainlink/contracts/src/v0.6/FluxAggregator.sol:FluxAggregator",
            "label": "answer",
            "offset": 0,
            "slot": "0",
            "type": "t_int256"
          },
          {
            "astId": 31,
            "contract": "@chainlink/contracts/src/v0.6/FluxAggregator.sol:FluxAggregator",
            "label": "startedAt",
            "offset": 0,
            "slot": "1",
            "type": "t_uint64"
          },
          {
            "astId": 33,
            "contract": "@chainlink/contracts/src/v0.6/FluxAggregator.sol:FluxAggregator",
            "label": "updatedAt",
            "offset": 8,
            "slot": "1",
            "type": "t_uint64"
          },
          {
            "astId": 35,
            "contract": "@chainlink/contracts/src/v0.6/FluxAggregator.sol:FluxAggregator",
            "label": "answeredInRound",
            "offset": 16,
            "slot": "1",
            "type": "t_uint32"
          }
        ],
        "numberOfBytes": "64"
      },
      "t_struct(RoundDetails)48_storage": {
        "encoding": "inplace",
        "label": "struct FluxAggregator.RoundDetails",
        "members": [
          {
            "astId": 39,
            "contract": "@chainlink/contracts/src/v0.6/FluxAggregator.sol:FluxAggregator",
            "label": "submissions",
            "offset": 0,
            "slot": "0",
            "type": "t_array(t_int256)dyn_storage"
          },
          {
            "astId": 41,
            "contract": "@chainlink/contracts/src/v0.6/FluxAggregator.sol:FluxAggregator",
            "label": "maxSubmissions",
            "offset": 0,
            "slot": "1",
            "type": "t_uint32"
          },
          {
            "astId": 43,
            "contract": "@chainlink/contracts/src/v0.6/FluxAggregator.sol:FluxAggregator",
            "label": "minSubmissions",
            "offset": 4,
            "slot": "1",
            "type": "t_uint32"
          },
          {
            "astId": 45,
            "contract": "@chainlink/contracts/src/v0.6/FluxAggregator.sol:FluxAggregator",
            "label": "timeout",
            "offset": 8,
            "slot": "1",
            "type": "t_uint32"
          },
          {
            "astId": 47,
            "contract": "@chainlink/contracts/src/v0.6/FluxAggregator.sol:FluxAggregator",
            "label": "paymentAmount",
            "offset": 12,
            "slot": "1",
            "type": "t_uint128"
          }
        ],
        "numberOfBytes": "64"
      },
      "t_uint128": {
        "encoding": "inplace",
        "label": "uint128",
        "numberOfBytes": "16"
      },
      "t_uint16": {
        "encoding": "inplace",
        "label": "uint16",
        "numberOfBytes": "2"
      },
      "t_uint32": {
        "encoding": "inplace",
        "label": "uint32",
        "numberOfBytes": "4"
      },
      "t_uint64": {
        "encoding": "inplace",
        "label": "uint64",
        "numberOfBytes": "8"
      },
      "t_uint8": {
        "encoding": "inplace",
        "label": "uint8",
        "numberOfBytes": "1"
      }
    }
  }
}