{
  "address": "0xB808614A6F17e11B63c9108443314F1C9f625c4A",
  "abi": [
    {
      "inputs": [
        {
          "internalType": "address",
          "name": "_aggregatorProxyAddress",
          "type": "address"
        }
      ],
      "stateMutability": "nonpayable",
      "type": "constructor"
    },
    {
      "inputs": [],
      "name": "getThePrice",
      "outputs": [
        {
          "internalType": "uint80",
          "name": "",
          "type": "uint80"
        },
        {
          "internalType": "int256",
          "name": "",
          "type": "int256"
        }
      ],
      "stateMutability": "view",
      "type": "function"
    }
  ],
  "transactionHash": "0x078beb46c82d77ac5dbf3a9e6d71df6a51c83814df13a8d73607b6683e17bd0e",
  "args": [
    "0x8f981Ae7D500aaC846DE867C9C5ee519937c2375"
  ],
  "numDeployments": 1,
  "solcInputHash": "19320a6460f8fca170550473413cd921",
  "bytecode": "0x608060405234801561001057600080fd5b5060405161025238038061025283398101604081905261002f91610054565b600080546001600160a01b0319166001600160a01b0392909216919091179055610084565b60006020828403121561006657600080fd5b81516001600160a01b038116811461007d57600080fd5b9392505050565b6101bf806100936000396000f3fe608060405234801561001057600080fd5b506004361061002b5760003560e01c80638c3c9a5514610030575b600080fd5b61003861005e565b6040805169ffffffffffffffffffff909316835260208301919091520160405180910390f35b60008060008060008060008060009054906101000a900473ffffffffffffffffffffffffffffffffffffffff1673ffffffffffffffffffffffffffffffffffffffff1663feaf968c6040518163ffffffff1660e01b815260040160a06040518083038186803b1580156100d057600080fd5b505afa1580156100e4573d6000803e3d6000fd5b505050506040513d601f19601f820116820180604052508101906101089190610139565b50929a91995090975050505050505050565b805169ffffffffffffffffffff8116811461013457600080fd5b919050565b600080600080600060a0868803121561015157600080fd5b61015a8661011a565b945060208601519350604086015192506060860151915061017d6080870161011a565b9050929550929590935056fea2646970667358221220e96c167c9869bae85000b314c11c9338bda8f097ae8781c0b9b7509ff50f6cd164736f6c63430008070033",
  "devdoc": {
    "kind": "dev",
    "methods": {},
    "version": 1
  },
  "userdoc": {
    "kind": "user",
    "methods": {
      "getThePrice()": {
        "notice": "Returns the latest price"
      }
    },
    "version": 1
  },
  "storageLayout": {
    "storage": [
      {
        "astId": 51,
        "contract": "contracts/PriceConsumer.sol:PriceConsumer",
        "label": "priceFeed",
        "offset": 0,
        "slot": "0",
        "type": "t_contract(AggregatorV3Interface)45"
      }
    ],
    "types": {
      "t_contract(AggregatorV3Interface)45": {
        "encoding": "inplace",
        "label": "contract AggregatorV3Interface",
        "numberOfBytes": "20"
      }
    }
  }
}